F01000000042935000010000222222222000411510610200000000000002023122800045093000055000021 JERINGA P/GASES ARTERIALES .        C000000006543500000000000000000000100000000000000000000000500000F0100000004293500120231228000000
F01000000042935000020000222222222000411510610200000000000002023122800045093000105000003 CIRCUITO P/VENTILACION MECANICA ADULC000000009933600000000000000000000100000000000000000000000100000F0100000004293500120231228000000
F010000000429350000300002222222220004115106102000000000000020231228000450946040-01 FUROsemida 20 mg/2 ml*2 ml N/A SOLUCION IC000000000437500000000000000000000100000000000000000000000500000F0100000004293500120231228000000
F01000000042935000040000222222222000411510610200000000000002023122800045093000055000005 JERINGA DESECHABLE 10ml 21G x 1 1/2 C000000003991000000000000000000000100000000000000000000002600000F0100000004293500120231228000000
F010000000429350000500002222222220004115106102000000000000020231228000450929523-03 SODIO CLORURO - SUERO FISIOLOGICO 0.9 %/1C000000004752000000000000000000000100000000000000000000001200000F0100000004293500120231228000000
F010000000429350000600002222222220004115106102000000000000020231228000450950786-05 LACTULOSA 66.79/100 ML SOBRES DUPAHLAC SOC000000000846900000000000000000000100000000000000000000000300000F0100000004293500120231228000000
F010000000429350000700002222222220004115106102000000000000020231228000450919986458-03 ACETAMINOFEN 500 mg N/A TABLETA       C000000000236800000000000000000000100000000000000000000000800000F0100000004293500120231228000000
F010000000429350000800002222222220004115106102000000000000020231228000450954615-03 TRANEXAMICO ACIDO 500mg/5ml*5ml N/A SOLUCC000000003625600000000000000000000100000000000000000000000800000F0100000004293500120231228000000
F010000000429350000900002222222220004115106102000000000000020231228000450919982753-06 VITAmina K 10 mg/ml*1ml N/A SOLUCION IC000000001040400000000000000000000100000000000000000000000300000F0100000004293500120231228000000
F010000000429350001000002222222220004115106102000000000000020231228000450953704-07 CEFAzolina 1 g N/A POLVO PARA INYECCION  C000000003288000000000000000000000100000000000000000000000500000F0100000004293500120231228000000
F010000000429350001100002222222220004115106102000000000000020231228000450936743-03 SUCRALFATO 1 g N/A TABLETA               C000000000442000000000000000000000100000000000000000000000400000F0100000004293500120231228000000
F010000000429350001200002222222220004115106102000000000000020231228000450920048683-01 PARACETAMOL (ACETAMINOFEN) 1G/100ML N/C000000006055200000000000000000000100000000000000000000000200000F0100000004293500120231228000000
F010000000429350001300002222222220004115106102000000000000020231228000450932602-02 LEVOTIroxina 100 mcg - EUTIROX EUTIROX TAC000000000136000000000000000000000100000000000000000000000200000F0100000004293500120231228000000
F01000000042935000140000222222222000411510610200000000000002023122800045093000005000027 EQUIPO BOMBA SPACE INFUSOMAT SIN AGUC000000024660000000000000000000000100000000000000000000000300000F0100000004293500120231228000000
F01000000042935000150000222222222000411510610200000000000002023122800045093000010000024 LLAVE DE TRES VIAS DESECHABLE       C000000000508200000000000000000000100000000000000000000000200000F0100000004293500120231228000000
F01000000042935000160000222222222000411510610200000000000002023122800045093000105000029 INCENTIVO RESPIRATORIO CON COLUMNA DC000000002299100000000000000000000100000000000000000000000100000F0100000004293500120231228000000
F010000000429350001700002222222220004115106102000000000000020231228000450939002-01 LIDOCAINA (2%) 2.14 g/100 ml*30 ml N/A JAC000000002228000000000000000000000100000000000000000000000100000F0100000004293500120231228000000
F010000000429350001800002222222220004115106102000000000000020231228000450920003828-01 ENEMA SOLUCION SALINA 2.5% * 1000 ML RC000000005610300000000000000000000100000000000000000000000100000F0100000004293500120231228000000
F01000000042935000190000222222222000411510610200000000000002023122800045093000005000008 EXTENSION DE ANESTESIA ADULTO       C000000000667000000000000000000000100000000000000000000000200000F0100000004293500120231228000000
F01000000042935000200000222222222000411510610200000000000002023122800045093000005001017 APOSITO PERIFERICO ADULTO PREMIUM 6CC000000001454200000000000000000000100000000000000000000000200000F0100000004293500120231228000000
F01000000042935000210000222222222000411510610200000000000002023122800045093000020000007 SONDA FOLEY DOS VIAS No. 16 (UND)   C000000001056200000000000000000000100000000000000000000000100000F0100000004293500120231228000000
F010000000429350002200002222222220004115106102000000000000020231228000450920041806-02 AGUA Esteril 10ML **SOLICITAR*** N/A SC000000000665200000000000000000000100000000000000000000000400000F0100000004293500120231228000000
F01000000042935000230000222222222000411510610200000000000002023122800045093000110000010 BOLSA DRENAJE URINARIO x 2000ML     C000000001625000000000000000000000100000000000000000000000100000F0100000004293500120231228000000
F010000000429350002400002222222220004115106102000000000000020231228000450919922562-06 DIPIRONA 1g/2ml*2 ml no uso pediatricoC000000000089600000000000000000000100000000000000000000000100000F0100000004293500120231228000000
F0100000004293500025000022222222200041151002100000000000000202312280004509110A01 INTERNACIÓN EN UNIDAD DE CUIDADO INTENSIVO C000000192440000000000000000000000100000000000000000000000100000F0100000004293500120231228000000
F0100000004293500026000022222222200041101033020000000000000202312280004509890406 INTERCONSULTA POR NUTRICION Y DIETETICA    C000000003250000000000000000000000100000000000000000000000100000F0100000004293500120231228000000
F0100000004293500027000022222222200041251002100000000000000202312280004509871121 RADIOGRAFIA DE TORAX (P.A. O A.P. Y LATERALC000000018580000000000000000000000100000000000000000000000200000F0100000004293500120231228000000
F0100000004293500028000022222222200041251002150000000000000202312280004509873501 FLUOROSCOPIA COMO GUIA PARA PROCEDIMIENTOS C000000013620000000000000000000000100000000000000000000000200000F0100000004293500120231228000000
F0100000004293500029000022222222200041301002020000000000000202312280004509939403 TERAPIA RESPIRATORIA INTEGRAL              C000000011920000000000000000000000100000000000000000000000400000F0100000004293500120231228000000
F0100000004293500030000022222222200041251003100000000000000202312280004509902104 DIMERO D AUTOMATIZADO                      C000000009340000000000000000000000100000000000000000000000100000F0100000004293500120231228000000
F0100000004293500031000022222222200041251003100000000000000202312280004509902024 FIBRINOGENO                                C000000002930000000000000000000000100000000000000000000000100000F0100000004293500120231228000000
F0100000004293500032000022222222200041251003110000000000000202312280004509903066 PEPTIDO ATRIAL NATRIURETICO [BNP] [PEPTIDO C000000013680000000000000000000000100000000000000000000000100000F0100000004293500120231228000000
F0100000004293500033000022222222200041251003100000000000000202312280004509903803 ALBUMINA EN SUERO U OTROS FLUIDOS          C000000001320000000000000000000000100000000000000000000000100000F0100000004293500120231228000000
F0100000004293500034000022222222200041251003100000000000000202312280004509903866 TRANSAMINASA GLUTAMICO-PIRUVICA [ALANINO AMC000000003370000000000000000000000100000000000000000000000100000F0100000004293500120231228000000
F0100000004293500035000022222222200041251003100000000000000202312280004509903867 TRANSAMINASA GLUTAMICO OXALACETICA [ASPARTAC000000003370000000000000000000000100000000000000000000000100000F0100000004293500120231228000000
F0100000004293500036000022222222200041251003100000000000000202312280004509903809 BILIRRUBINAS TOTAL Y DIRECTA               C000000001740000000000000000000000100000000000000000000000100000F0100000004293500120231228000000
F0100000004293500037000022222222200041251003100000000000000202312280004509903856 NITROGENO UREICO                           C000000003080000000000000000000000100000000000000000000000200000F0100000004293500120231228000000
F0100000004293500038000022222222200041251003100000000000000202312280004509903895 CREATININA EN SUERO U OTROS FLUIDOS        C000000003700000000000000000000000100000000000000000000000200000F0100000004293500120231228000000
F0100000004293500039000022222222200041251003100000000000000202312280004509902210 HEMOGRAMA IV (HEMOGLOBINA HEMATOCRITO RECUEC000000006420000000000000000000000100000000000000000000000200000F0100000004293500120231228000000
F0100000004293500040000022222222200041251003110000000000000202312280004509906841 PROCALCITONINA SEMIAUTOMATIZADO O AUTOMATIZC000000019280000000000000000000000100000000000000000000000100000F0100000004293500120231228000000
F0100000004293500041000022222222200041251003100000000000000202312280004509903863 PROTEINAS TOTALES EN SUERO Y OTROS FLUIDOS C000000001320000000000000000000000100000000000000000000000100000F0100000004293500120231228000000
F0100000004293500042000022222222200041251003100000000000000202312280004509902045 TIEMPO DE PROTROMBINA [TP]                 C000000009340000000000000000000000100000000000000000000000200000F0100000004293500120231228000000
F0100000004293500043000022222222200041251003100000000000000202312280004509902049 TIEMPO DE TROMBOPLASTINA PARCIAL [TTP]     C000000009120000000000000000000000100000000000000000000000200000F0100000004293500120231228000000
F0100000004293500044000022222222200041251003110000000000000202312280004509904902 HORMONA ESTIMULANTE DEL TIROIDES           C000000010170000000000000000000000100000000000000000000000100000F0100000004293500120231228000000
F01000000042935000450000222222222000411510610200000000000002023122800045093000105000005 HUMIDIFICADOR DE OXIGENO            C000000001340400000000000000000000100000000000000000000000100000F0100000004293500120231228000000
F010000000429350004600002222222220004115106102000000000000020231228000450949658-01 OXIGENO medicinal x m3 UNIDAD N/A        C000000047880000000000000000000000100000000000000000001368000000F0100000004293500120231228000000
F0100000004293500047000022222222200041251003100000000000000202312280004509903883 GLUCOSA SEMIAUTOMATIZADA [GLUCOMETRIA]     C000000002310000000000000000000000100000000000000000000000300000F0100000004293500120231228000000
F0100000004293500048000022222222200041151001110000000000000202312280004509107M01 INTERNACIÓN EN UNIDAD DE CUIDADO INTERMEDIOC000000103530000000000000000000000100000000000000000000000100000F0100000004293500120231228000000
F010000000429350004900002222222220004115106102000000000000020231228000450932602-02 LEVOTIroxina 100 mcg - EUTIROX EUTIROX TAC000000000068000000000000000000000100000000000000000000000100000F0100000004293500120231228000000
F010000000429350005000002222222220004115106102000000000000020231228000450953704-07 CEFAzolina 1 g N/A POLVO PARA INYECCION  C000000000657600000000000000000000100000000000000000000000100000F0100000004293500120231228000000
F01000000042935000510000222222222000411510610200000000000002023122800045093000055000005 JERINGA DESECHABLE 10ml 21G x 1 1/2 C000000000153500000000000000000000100000000000000000000000100000F0100000004293500120231228000000
F010000000429350005200002222222220004115106102000000000000020231228000450929523-03 SODIO CLORURO - SUERO FISIOLOGICO 0.9 %/1C000000000396000000000000000000000100000000000000000000000100000F0100000004293500120231228000000
F010000000429350005300002222222220004115106102000000000000020231228000450919986458-03 ACETAMINOFEN 500 mg N/A TABLETA       C000000000118400000000000000000000100000000000000000000000400000F0100000004293500120231228000000
F010000000429350005400002222222220004115106102000000000000020231228000450941072-02 OMEPRAZOL 20 MG LEGRAND CAPSULA          C000000000039200000000000000000000100000000000000000000000100000F0100000004293500120231228000000
F010000000429350005500002222222220004115100110000000000000020231228000450910A002 INTERNACIÓN COMPLEJIDAD ALTA HABITACION BIPC000000042700000000000000000000000100000000000000000000000100000F0100000004293500120231228000000
F0100000004293500056000022222222200041301002020000000000000202312280004509939403 TERAPIA RESPIRATORIA INTEGRAL              C000000002980000000000000000000000100000000000000000000000100000F0100000004293500120231228000000
F010000000429350005700002222222220004115106102000000000000020231228000450936241-04 ENOXAPARINA SODICA 40 mg/0.4 ml SOLO PARAC000000001293500000000000000000000100000000000000000000000100000F0100000004293500120231228000000
F010000000429350005800002222222220004115106102000000000000020231228000450929523-03 SODIO CLORURO - SUERO FISIOLOGICO 0.9 %/1C000000000396000000000000000000000100000000000000000000000100000F0100000004293500120231228000000
F01000000042935000590000222222222000411510610200000000000002023122800045093000055000005 JERINGA DESECHABLE 10ml 21G x 1 1/2 C000000000153500000000000000000000100000000000000000000000100000F0100000004293500120231228000000
F010000000429350006000002222222220004115106102000000000000020231228000450953704-07 CEFAzolina 1 g N/A POLVO PARA INYECCION  C000000000657600000000000000000000100000000000000000000000100000F0100000004293500120231228000000
F0100000004293500061000022222222200013022500000000000000000202312280004509SERVICIOS MES 12 DE 2023                          D000000499884000000000000000000000100000000000000000000000000000F0100000004293500120231228000000
F0100000004293500061000022222222200041752000000000000000000202312280004509SERVICIOS MES 12 DE 2023                          D000000124971000000000000000000000100000000000000000000000000000F0100000004293500120231228000000
F0100000004332000001000022222222200041355500000000000000000202312280004509EF48102 COPAGO Y CUOTAS MODERADORAS NIVEL 3       C000000004550000000000000000000000100000000000000000000000100000F0100000004332000120231228000000
F0100000004332000002000022222222200013022500000000000000000202312280004509SERVICIOS MES 12 DE 2023                          D000000004550000000000000000000000100000000000000000000000000000F0100000004332000120231228000000
F0100000004346000001000022222222200041355500000000000000000202312280004509EF48102 COPAGO Y CUOTAS MODERADORAS NIVEL 1       C000000011502000000000000000000000100000000000000000000000100000F0100000004346000120231228000000
F0100000004346000002000022222222200013022500000000000000000202312280004509SERVICIOS MES 12 DE 2023                          D000000011502000000000000000000000100000000000000000000000000000F0100000004346000120231228000000
F0100000004346100001000022222222200041251002100000000000000202312280004509873333 RADIOGRAFIA DE PIE (AP LATERAL Y OBLICUA)  C000000002200000000000000000000000100000000000000000000000100000F0100000004346100120231228000000
F0100000004346100002000022222222200041251002100000000000000202312280004509873431 RADIOGRAFIA DE TOBILLO (AP LATERAL Y ROTACIC000000002200000000000000000000000100000000000000000000000100000F0100000004346100120231228000000
F0100000004346100003000022222222200013022500000000000000000202312280004509SERVICIOS MES 12 DE 2023                          D000000004400000000000000000000000100000000000000000000000000000F0100000004346100120231228000000
F0100000004346200001000022222222200041251003110000000000000202312280004509904902 HORMONA ESTIMULANTE DEL TIROIDES           C000000001280000000000000000000000100000000000000000000000100000F0100000004346200120231228000000
F0100000004346200002000022222222200013022500000000000000000202312280004509SERVICIOS MES 12 DE 2023                          D000000001280000000000000000000000100000000000000000000000000000F0100000004346200120231228000000
F0100000004346300001000022222222200041355500000000000000000202312280004509EF48102 COPAGO Y CUOTAS MODERADORAS NIVEL 1       C000000013530000000000000000000000100000000000000000000003300000F0100000004346300120231228000000
F0100000004346300002000022222222200041355500000000000000000202312280004509EF48102 COPAGO Y CUOTAS MODERADORAS NIVEL 2       C000000001640000000000000000000000100000000000000000000000100000F0100000004346300120231228000000
F0100000004346300003000022222222200013022500000000000000000202312280004509SERVICIOS MES 12 DE 2023                          D000000015170000000000000000000000100000000000000000000000000000F0100000004346300120231228000000
F0100000004346500001000022222222200041251003100000000000000202312280004509906910 FACTOR REUMATOIDEO SEMIAUTOMATIZADO O AUTOMC000000001160000000000000000000000100000000000000000000000100000F0100000004346500120231228000000
F0100000004346500002000022222222200013022500000000000000000202312280004509SERVICIOS MES 12 DE 2023                          D000000001160000000000000000000000100000000000000000000000000000F0100000004346500120231228000000
F0100000004346600001000022222222200041251003110000000000000202312280004509905312 LITIO AUTOMATIZADO                         C000000001800000000000000000000000100000000000000000000000100000F0100000004346600120231228000000
F0100000004346600002000022222222200013022500000000000000000202312280004509SERVICIOS MES 12 DE 2023                          D000000001800000000000000000000000100000000000000000000000000000F0100000004346600120231228000000
F01000000043467000010000222222222000410510030200000000000002023122900045095DS002 DERECHOS DE SALA CURACIONES O PROCEDIMIENTOC000000002750000000000000000000000100000000000000000000000100000F0100000004346700120231229000000
F0100000004346700002000022222222200013022500000000000000000202312290004509SERVICIOS MES 12 DE 2023                          D000000002750000000000000000000000100000000000000000000000000000F0100000004346700120231229000000
F0100000004346800001000022222222200041251003100000000000000202312290004509907106 UROANALISIS                                C000000001220000000000000000000000100000000000000000000000100000F0100000004346800120231229000000
F0100000004346800002000022222222200041251003100000000000000202312290004509907004 COPROSCOPICO                               C000000001800000000000000000000000100000000000000000000000100000F0100000004346800120231229000000
F0100000004346800003000022222222200013022500000000000000000202312290004509SERVICIOS MES 12 DE 2023                          D000000003020000000000000000000000100000000000000000000000000000F0100000004346800120231229000000
F010000000434690000100002222222220004110106102000000000000020231229000450951063-03 TRIMETOPRIM 160mg +SULFAMETOXAZOL 800 mg C000000000440000000000000000000000100000000000000000000002000000F0100000004346900120231229000000
F010000000434690000200002222222220004110106102000000000000020231229000450933496-03 AMOXIcilina 500 mg CAPSULA N/A           C000000000600000000000000000000000100000000000000000000002000000F0100000004346900120231229000000
F0100000004346900003000022222222200013022500000000000000000202312290004509SERVICIOS MES 12 DE 2023                          D000000001040000000000000000000000100000000000000000000000000000F0100000004346900120231229000000
F0100000004347000001000022222222200041251003100000000000000202312290004509903841 GLUCOSA EN SUERO U OTRO FLUIDO DIFERENTE A C000000000690000000000000000000000100000000000000000000000100000F0100000004347000120231229000000
F0100000004347000002000022222222200041251003100000000000000202312290004509902210 HEMOGRAMA IV (HEMOGLOBINA HEMATOCRITO RECUEC000000001200000000000000000000000100000000000000000000000100000F0100000004347000120231229000000
F0100000004347000003000022222222200041251003100000000000000202312290004509902045 TIEMPO DE PROTROMBINA [TP]                 C000000000700000000000000000000000100000000000000000000000100000F0100000004347000120231229000000
F0100000004347000004000022222222200041251003100000000000000202312290004509902049 TIEMPO DE TROMBOPLASTINA PARCIAL [TTP]     C000000000800000000000000000000000100000000000000000000000100000F0100000004347000120231229000000
F0100000004347000005000022222222200041251004010000000000000202312290004509895100 ELECTROCARDIOGRAMA DE RITMO O DE SUPERFICIEC000000006360000000000000000000000100000000000000000000000100000F0100000004347000120231229000000
F0100000004347000006000022222222200013022500000000000000000202312290004509SERVICIOS MES 12 DE 2023                          D000000009750000000000000000000000100000000000000000000000000000F0100000004347000120231229000000
F0100000004347100001000022222222200041251002100000000000000202312290004509871121 RADIOGRAFIA DE TORAX (P.A. O A.P. Y LATERALC000000002181200000000000000000000100000000000000000000000100000F0100000004347100120231229000000
F0100000004347100002000022222222200041251003110000000000000202312290004509903839 GASES ARTERIALES (EN REPOSO O EN EJERCICIO)C000000001215800000000000000000000100000000000000000000000100000F0100000004347100120231229000000
F0100000004347100003000022222222200013022500000000000000000202312290004509SERVICIOS MES 12 DE 2023                          D000000003397000000000000000000000100000000000000000000000000000F0100000004347100120231229000000
F0100000004347200001000022222222200041251002110000000000000202312310004509881436 ECOGRAFIA OBSTETRICA CON TRANSLUCENCIA NUCAC000000024638400000000000000000000100000000000000000000000100000F0100000004347200120231231000000
F0100000004347200002000022222222200013022500000000000000000202312310004509SERVICIOS MES 12 DE 2023                          D000000024638400000000000000000000100000000000000000000000000000F0100000004347200120231231000000
F0100000004347300001000022222222200041251003100000000000000202401020004509902210 HEMOGRAMA IV (HEMOGLOBINA HEMATOCRITO RECUEC000000001220000000000000000000000100000000000000000000000100000F0100000004347300120240102000000
F0100000004347300002000022222222200041251003100000000000000202401020004509903841 GLUCOSA EN SUERO U OTRO FLUIDO DIFERENTE A C000000001220000000000000000000000100000000000000000000000100000F0100000004347300120240102000000
F0100000004347300003000022222222200041251003100000000000000202401020004509903895 CREATININA EN SUERO U OTROS FLUIDOS        C000000001220000000000000000000000100000000000000000000000100000F0100000004347300120240102000000
F0100000004347300004000022222222200041251003100000000000000202401020004509903856 NITROGENO UREICO                           C000000001220000000000000000000000100000000000000000000000100000F0100000004347300120240102000000
F0100000004347300005000022222222200041251003100000000000000202401020004509903864 SODIO EN SUERO U OTROS FLUIDOS             C000000001220000000000000000000000100000000000000000000000100000F0100000004347300120240102000000
F0100000004347300006000022222222200041251003100000000000000202401020004509903859 POTASIO EN SUERO U OTROS FLUIDOS           C000000001220000000000000000000000100000000000000000000000100000F0100000004347300120240102000000
F0100000004347300007000022222222200013022500000000000000000202401020004509SERVICIOS MES 01 DE 2024                          D000000007320000000000000000000000100000000000000000000000000000F0100000004347300120240102000000
F0100000004347400001000022222222200041201008020000000000000202401020004509103104 RESECCION DE PTERIGION (NASAL O TEMPORAL) CC000000024000000000000000000000000100000000000000000000000100000F0100000004347400120240102000000
F0100000004347400002000022222222200013022500000000000000000202401020004509SERVICIOS MES 01 DE 2024                          D000000024000000000000000000000000100000000000000000000000000000F0100000004347400120240102000000
F0100000004347500001000022222222200041251003100000000000000202401020004509902210 HEMOGRAMA IV (HEMOGLOBINA HEMATOCRITO RECUEC000000001220000000000000000000000100000000000000000000000100000F0100000004347500120240102000000
F0100000004347500002000022222222200041251003110000000000000202401020004509906836 INMUNOGLOBULINA E [Ig E] AUTOMATIZADO      C000000003600000000000000000000000100000000000000000000000100000F0100000004347500120240102000000
F0100000004347500003000022222222200013022500000000000000000202401020004509SERVICIOS MES 01 DE 2024                          D000000004820000000000000000000000100000000000000000000000000000F0100000004347500120240102000000
F0100000004347600001000022222222200041251003110000000000000202401020004509903839 GASES ARTERIALES (EN REPOSO O EN EJERCICIO)C000000005400000000000000000000000100000000000000000000000100000F0100000004347600120240102000000
F01000000043476000020000222222222000412501020200000000000002024010200045093000055000021 JERINGA P/GASES ARTERIALES .        C000000001300000000000000000000000100000000000000000000000100000F0100000004347600120240102000000
F0100000004347600003000022222222200013022500000000000000000202401020004509SERVICIOS MES 01 DE 2024                          D000000005360000000000000000000000100000000000000000000000000000F0100000004347600120240102000000
F0100000004347600003000022222222200041752000000000000000000202401020004509SERVICIOS MES 01 DE 2024                          D000000001340000000000000000000000100000000000000000000000000000F0100000004347600120240102000000
F0100000004347700001000022222222200041201008020000000000000202401020004509103104 RESECCION DE PTERIGION (NASAL O TEMPORAL) CC000000025000000000000000000000000100000000000000000000000100000F0100000004347700120240102000000
F0100000004347700002000022222222200013022500000000000000000202401020004509SERVICIOS MES 01 DE 2024                          D000000025000000000000000000000000100000000000000000000000000000F0100000004347700120240102000000
F010000000434780000100002222222220004110106102000000000000020240102000450920019105-06 DEXAMEtasona 8 mg/2ml SOLUCION INYECTAC000000000050000000000000000000000100000000000000000000000100000F0100000004347800120240102000000
F010000000434780000200002222222220004110106102000000000000020240102000450919934768-18 DICLOfenaco 75 mg/3 ml*3 ml SOLUCION IC000000000045000000000000000000000100000000000000000000000100000F0100000004347800120240102000000
F010000000434780000300002222222220004110106102000000000000020240102000450919982755-01 DESLOratadina 5mg COMPRIMIDO RECUBIERTC000000000210000000000000000000000100000000000000000000000700000F0100000004347800120240102000000
F010000000434780000400002222222220004110106102000000000000020240102000450919977769-01 CLOBETAZOL (0.05%)* 30gr CREMA TOPICA C000000001500000000000000000000000100000000000000000000000100000F0100000004347800120240102000000
F0100000004347800005000022222222200013022500000000000000000202401020004509SERVICIOS MES 01 DE 2024                          D000000001805000000000000000000000100000000000000000000000000000F0100000004347800120240102000000
F0100000004347900001000022222222200041251003100000000000000202401030004509902210 HEMOGRAMA IV (HEMOGLOBINA HEMATOCRITO RECUEC000000001220000000000000000000000100000000000000000000000100000F0100000004347900120240103000000
F0100000004347900002000022222222200041251003100000000000000202401030004509903809 BILIRRUBINAS TOTAL Y DIRECTA               C000000001220000000000000000000000100000000000000000000000100000F0100000004347900120240103000000
F0100000004347900003000022222222200041251003100000000000000202401030004509903833 FOSFATASA ALCALINA                         C000000001220000000000000000000000100000000000000000000000100000F0100000004347900120240103000000
F0100000004347900004000022222222200041251003100000000000000202401030004509903866 TRANSAMINASA GLUTAMICO-PIRUVICA [ALANINO AMC000000001220000000000000000000000100000000000000000000000100000F0100000004347900120240103000000
F0100000004347900005000022222222200041251003100000000000000202401030004509903867 TRANSAMINASA GLUTAMICO OXALACETICA [ASPARTAC000000001220000000000000000000000100000000000000000000000100000F0100000004347900120240103000000
F0100000004347900006000022222222200041251003100000000000000202401030004509903895 CREATININA EN SUERO U OTROS FLUIDOS        C000000001220000000000000000000000100000000000000000000000100000F0100000004347900120240103000000
F0100000004347900007000022222222200041251003110000000000000202401030004509906829 INMUNOGLOBULINA G [Ig G] AUTOMATIZADO      C000000001220000000000000000000000100000000000000000000000100000F0100000004347900120240103000000
F0100000004347900008000022222222200013022500000000000000000202401030004509SERVICIOS MES 01 DE 2024                          D000000008540000000000000000000000100000000000000000000000000000F0100000004347900120240103000000
F0100000004348000001000022222222200041251003100000000000000202401030004509902210 HEMOGRAMA IV (HEMOGLOBINA HEMATOCRITO RECUEC000000001220000000000000000000000100000000000000000000000100000F0100000004348000120240103000000
F0100000004348000002000022222222200041251003100000000000000202401030004509902204 ERITROSEDIMENTACION [VELOCIDAD SEDIMENTACIOC000000001220000000000000000000000100000000000000000000000100000F0100000004348000120240103000000
F0100000004348000003000022222222200041251003100000000000000202401030004509903866 TRANSAMINASA GLUTAMICO-PIRUVICA [ALANINO AMC000000001220000000000000000000000100000000000000000000000100000F0100000004348000120240103000000
F0100000004348000004000022222222200041251003100000000000000202401030004509903867 TRANSAMINASA GLUTAMICO OXALACETICA [ASPARTAC000000001220000000000000000000000100000000000000000000000100000F0100000004348000120240103000000
F0100000004348000005000022222222200041251003100000000000000202401030004509903895 CREATININA EN SUERO U OTROS FLUIDOS        C000000001220000000000000000000000100000000000000000000000100000F0100000004348000120240103000000
F0100000004348000006000022222222200041251003110000000000000202401030004509906906 COMPLEMENTO SERICO C3 AUTOMATIZADO         C000000001220000000000000000000000100000000000000000000000100000F0100000004348000120240103000000
F0100000004348000007000022222222200041251003110000000000000202401030004509906908 COMPLEMENTO SERICO C4 AUTOMATIZADO         C000000001220000000000000000000000100000000000000000000000100000F0100000004348000120240103000000
F0100000004348000008000022222222200041251003110000000000000202401030004509906417 DNA n ANTICUERPOS SEMIAUTOMATIZADO O AUTOMAC000000002900000000000000000000000100000000000000000000000100000F0100000004348000120240103000000
F0100000004348000009000022222222200013022500000000000000000202401030004509SERVICIOS MES 01 DE 2024                          D000000011440000000000000000000000100000000000000000000000000000F0100000004348000120240103000000
F0100000004348100001000022222222200042955000000000000000000202401030004509INS004 HISTORIA CLINICA                           C000000000300000000000000000000000100000000000000000000000100000F0100000004348100120240103000000
F0100000004348100002000022222222200013022500000000000000000202401030004509SERVICIOS MES 01 DE 2024                          D000000000300000000000000000000000100000000000000000000000000000F0100000004348100120240103000000
F0100000004348200001000022222222200041251003100000000000000202401030004509902210 HEMOGRAMA IV (HEMOGLOBINA HEMATOCRITO RECUEC000000001200000000000000000000000100000000000000000000000100000F0100000004348200120240103000000
F0100000004348200002000022222222200013022500000000000000000202401030004509SERVICIOS MES 01 DE 2024                          D000000001200000000000000000000000100000000000000000000000000000F0100000004348200120240103000000
F0100000004348300001000022222222200041251003100000000000000202401040004509903841 GLUCOSA EN SUERO U OTRO FLUIDO DIFERENTE A C000000000690000000000000000000000100000000000000000000000100000F0100000004348300120240104000000
F0100000004348300002000022222222200041251003110000000000000202401040004509904902 HORMONA ESTIMULANTE DEL TIROIDES           C000000001450000000000000000000000100000000000000000000000100000F0100000004348300120240104000000
F0100000004348300003000022222222200013022500000000000000000202401040004509SERVICIOS MES 01 DE 2024                          D000000002140000000000000000000000100000000000000000000000000000F0100000004348300120240104000000
F0100000004348600001000022222222200041251002100000000000000202401040004509906340 SARS CoV2 [COVID 19] ANTIGENO              C000000002400000000000000000000000100000000000000000000000100000F0100000004348600120240104000000
F0100000004348600002000022222222200013022500000000000000000202401040004509SERVICIOS MES 01 DE 2024                          D000000002400000000000000000000000100000000000000000000000000000F0100000004348600120240104000000
F0100000004348700001000022222222200041251002100000000000000202401040004509906340 SARS CoV2 [COVID 19] ANTIGENO              C000000002400000000000000000000000100000000000000000000000100000F0100000004348700120240104000000
F0100000004348700002000022222222200013022500000000000000000202401040004509SERVICIOS MES 01 DE 2024                          D000000002400000000000000000000000100000000000000000000000000000F0100000004348700120240104000000
F0100000004348900001000022222222200041251003100000000000000202401050004509901235 UROCULTIVO (ANTIBIOGRAMA DE DISCO)         C000000002917500000000000000000000100000000000000000000000100000F0100000004348900120240105000000
F0100000004348900002000022222222200013022500000000000000000202401050004509SERVICIOS MES 01 DE 2024                          D000000002917500000000000000000000100000000000000000000000000000F0100000004348900120240105000000
F01000000043490000010000222222222000410510030200000000000002024010600045095DS002 DERECHOS DE SALA CURACIONES O PROCEDIMIENTOC000000002750000000000000000000000100000000000000000000000100000F0100000004349000120240106000000
F0100000004349000002000022222222200013022500000000000000000202401060004509SERVICIOS MES 01 DE 2024                          D000000002750000000000000000000000100000000000000000000000000000F0100000004349000120240106000000
F0100000004349100001000022222222200041051001020000000000000202401060004509890701 CONSULTA DE URGENCIAS POR MEDICINA GENERAL C000000007640000000000000000000000100000000000000000000000100000F0100000004349100120240106000000
F0100000004349100002000022222222200041251002100000000000000202401060004509871121 RADIOGRAFIA DE TORAX (P.A. O A.P. Y LATERALC000000002180000000000000000000000100000000000000000000000100000F0100000004349100120240106000000
F0100000004349100003000022222222200041251003100000000000000202401060004509902210 HEMOGRAMA IV (HEMOGLOBINA HEMATOCRITO RECUEC000000001220000000000000000000000100000000000000000000000100000F0100000004349100120240106000000
F010000000434910000400002222222220004105010102000000000000020240106000450919934768-18 DICLOfenaco 75 mg/3 ml*3 ml SOLUCION IC000000000123300000000000000000000100000000000000000000000100000F0100000004349100120240106000000
F01000000043491000050000222222222000410501020200000000000002024010600045093000055000009 JERINGA DESECHABLE 5ml 21G x 1 1/2  C000000000107100000000000000000000100000000000000000000000100000F0100000004349100120240106000000
F0100000004349100006000022222222200013022500000000000000000202401060004509SERVICIOS MES 01 DE 2024                          D000000011270400000000000000000000100000000000000000000000000000F0100000004349100120240106000000
F0100000004349200001000022222222200041051001020000000000000202401060004509890701 CONSULTA DE URGENCIAS POR MEDICINA GENERAL C000000007640000000000000000000000100000000000000000000000100000F0100000004349200120240106000000
F0100000004349200002000022222222200041251003100000000000000202401060004509902210 HEMOGRAMA IV (HEMOGLOBINA HEMATOCRITO RECUEC000000001220000000000000000000000100000000000000000000000100000F0100000004349200120240106000000
F0100000004349200003000022222222200041251003100000000000000202401060004509907004 COPROSCOPICO                               C000000001720000000000000000000000100000000000000000000000100000F0100000004349200120240106000000
F0100000004349200004000022222222200041251003100000000000000202401060004509907106 UROANALISIS                                C000000001220000000000000000000000100000000000000000000000100000F0100000004349200120240106000000
F010000000434920000500002222222220004105010102000000000000020240106000450919926478-03 N-BUTIL BROMURO DE HIOSCINA + DIPIRONAC000000000444100000000000000000000100000000000000000000000100000F0100000004349200120240106000000
F010000000434920000600002222222220004105010102000000000000020240106000450919922566-06 OMEPrazol 40 mg POLVO PARA INYECCION NC000000000346500000000000000000000100000000000000000000000100000F0100000004349200120240106000000
F010000000434920000700002222222220004105010102000000000000020240106000450932611-02 LACTATO DE RINGER *1000 ml SOLUCION INYECC000000000659600000000000000000000100000000000000000000000100000F0100000004349200120240106000000
F010000000434920000800002222222220004105010102000000000000020240106000450929523-03 SODIO CLORURO - SUERO FISIOLOGICO 0.9 %/1C000000000792000000000000000000000100000000000000000000000200000F0100000004349200120240106000000
F01000000043492000090000222222222000410501020200000000000002024010600045093000010000009 CATHETER INTRAVENOSO No.18G x 1-1/4 C000000000562200000000000000000000100000000000000000000000100000F0100000004349200120240106000000
F01000000043492000100000222222222000410501020200000000000002024010600045093000005000002 EQUIPO DE MACROGOTEO SIN AGUJA VENOCC000000000322300000000000000000000100000000000000000000000100000F0100000004349200120240106000000
F01000000043492000110000222222222000410501020200000000000002024010600045093000055000005 JERINGA DESECHABLE 10ml 21G x 1 1/2 C000000000460500000000000000000000100000000000000000000000300000F0100000004349200120240106000000
F01000000043492000120000222222222000410501020200000000000002024010600045093010005000086 CAJA COPROLOGICA                    C000000000092100000000000000000000100000000000000000000000100000F0100000004349200120240106000000
F01000000043492000130000222222222000410501020200000000000002024010600045093010005000334 FRASCO RECOLECTOR DE ORINA M/NACIONAC000000000124200000000000000000000100000000000000000000000100000F0100000004349200120240106000000
F0100000004349200014000022222222200041251003100000000000000202401060004509903805 AMILASA EN SUERO U OTROS FLUIDOS           C000000001220000000000000000000000100000000000000000000000100000F0100000004349200120240106000000
F0100000004349200015000022222222200041251003100000000000000202401060004509903867 TRANSAMINASA GLUTAMICO OXALACETICA [ASPARTAC000000001220000000000000000000000100000000000000000000000100000F0100000004349200120240106000000
F0100000004349200016000022222222200041251003100000000000000202401060004509903866 TRANSAMINASA GLUTAMICO-PIRUVICA [ALANINO AMC000000001220000000000000000000000100000000000000000000000100000F0100000004349200120240106000000
F0100000004349200017000022222222200041251003100000000000000202401060004509903809 BILIRRUBINAS TOTAL Y DIRECTA               C000000001220000000000000000000000100000000000000000000000100000F0100000004349200120240106000000
F0100000004349200018000022222222200041251003100000000000000202401060004509906913 PROTEINA C REACTIVA ALTA PRECISION AUTOMATIC000000001220000000000000000000000100000000000000000000000100000F0100000004349200120240106000000
F0100000004349200019000022222222200041251003100000000000000202401060004509903833 FOSFATASA ALCALINA                         C000000001220000000000000000000000100000000000000000000000100000F0100000004349200120240106000000
F0100000004349200020000022222222200013022500000000000000000202401060004509SERVICIOS MES 01 DE 2024                          D000000022923500000000000000000000100000000000000000000000000000F0100000004349200120240106000000
F0100000004349300001000022222222200041051001020000000000000202401070004509890701 CONSULTA DE URGENCIAS POR MEDICINA GENERAL C000000007640000000000000000000000100000000000000000000000100000F0100000004349300120240107000000
F0100000004349300002000022222222200013022500000000000000000202401070004509SERVICIOS MES 01 DE 2024                          D000000007640000000000000000000000100000000000000000000000000000F0100000004349300120240107000000
F0100000004349400001000022222222200041355500000000000000000202401070004509EF48102 COPAGO Y CUOTAS MODERADORAS NIVEL 3       C000000007280000000000000000000000100000000000000000000000100000F0100000004349400120240107000000
F0100000004349400002000022222222200013022500000000000000000202401070004509SERVICIOS MES 01 DE 2024                          D000000007280000000000000000000000100000000000000000000000000000F0100000004349400120240107000000
F0100000004349500001000022222222200041251003100000000000000202401080004509904508 GONADOTROPINA CORIONICA SUBUNIDAD BETA CUALC000000001220000000000000000000000100000000000000000000000100000F0100000004349500120240108000000
F0100000004349500002000022222222200013022500000000000000000202401080004509SERVICIOS MES 01 DE 2024                          D000000001220000000000000000000000100000000000000000000000000000F0100000004349500120240108000000
F0100000004349600001000022222222200041251003100000000000000202401080004509901235 UROCULTIVO (ANTIBIOGRAMA DE DISCO)         C000000002917400000000000000000000100000000000000000000000100000F0100000004349600120240108000000
F0100000004349600002000022222222200013022500000000000000000202401080004509SERVICIOS MES 01 DE 2024                          D000000002917400000000000000000000100000000000000000000000000000F0100000004349600120240108000000
F0100000004349700001000022222222200041251003100000000000000202401080004509903895 CREATININA EN SUERO U OTROS FLUIDOS        C000000001300000000000000000000000100000000000000000000000100000F0100000004349700120240108000000
F0100000004349700002000022222222200013022500000000000000000202401080004509SERVICIOS MES 01 DE 2024                          D000000001300000000000000000000000100000000000000000000000000000F0100000004349700120240108000000
F0100000004349800001000022222222200041251002100000000000000202401080004509906340 SARS CoV2 [COVID 19] ANTIGENO              C000000002400000000000000000000000100000000000000000000000100000F0100000004349800120240108000000
F0100000004349800002000022222222200013022500000000000000000202401080004509SERVICIOS MES 01 DE 2024                          D000000002400000000000000000000000100000000000000000000000000000F0100000004349800120240108000000
F0100000004349900001000022222222200041251003100000000000000202401090004509903841 GLUCOSA EN SUERO U OTRO FLUIDO DIFERENTE A C000000001220000000000000000000000100000000000000000000000100000F0100000004349900120240109000000
F0100000004349900002000022222222200041251003100000000000000202401090004509903818 COLESTEROL TOTAL                           C000000001220000000000000000000000100000000000000000000000100000F0100000004349900120240109000000
F0100000004349900003000022222222200041251003100000000000000202401090004509903815 COLESTEROL DE ALTA DENSIDAD                C000000001220000000000000000000000100000000000000000000000100000F0100000004349900120240109000000
F0100000004349900004000022222222200041251003100000000000000202401090004509903868 TRIGLICERIDOS                              C000000001220000000000000000000000100000000000000000000000100000F0100000004349900120240109000000
F0100000004349900005000022222222200013022500000000000000000202401090004509SERVICIOS MES 01 DE 2024                          D000000004880000000000000000000000100000000000000000000000000000F0100000004349900120240109000000
F0100000004350000001000022222222200041251003100000000000000202401090004509903841 GLUCOSA EN SUERO U OTRO FLUIDO DIFERENTE A C000000001220000000000000000000000100000000000000000000000100000F0100000004350000120240109000000
F0100000004350000002000022222222200041251003100000000000000202401090004509902045 TIEMPO DE PROTROMBINA [TP]                 C000000001220000000000000000000000100000000000000000000000100000F0100000004350000120240109000000
F0100000004350000003000022222222200041251003100000000000000202401090004509902049 TIEMPO DE TROMBOPLASTINA PARCIAL [TTP]     C000000001220000000000000000000000100000000000000000000000100000F0100000004350000120240109000000
F0100000004350000004000022222222200013022500000000000000000202401090004509SERVICIOS MES 01 DE 2024                          D000000003660000000000000000000000100000000000000000000000000000F0100000004350000120240109000000
F0100000004350100001000022222222200041251003100000000000000202401090004509903841 GLUCOSA EN SUERO U OTRO FLUIDO DIFERENTE A C000000001220000000000000000000000100000000000000000000000100000F0100000004350100120240109000000
F0100000004350100002000022222222200041251003100000000000000202401090004509903818 COLESTEROL TOTAL                           C000000001220000000000000000000000100000000000000000000000100000F0100000004350100120240109000000
F0100000004350100003000022222222200041251003100000000000000202401090004509903868 TRIGLICERIDOS                              C000000001220000000000000000000000100000000000000000000000100000F0100000004350100120240109000000
F0100000004350100004000022222222200041251003100000000000000202401090004509903815 COLESTEROL DE ALTA DENSIDAD                C000000001220000000000000000000000100000000000000000000000100000F0100000004350100120240109000000
F0100000004350100005000022222222200013022500000000000000000202401090004509SERVICIOS MES 01 DE 2024                          D000000004880000000000000000000000100000000000000000000000000000F0100000004350100120240109000000
F0100000004350200001000022222222200041251003100000000000000202401090004509903895 CREATININA EN SUERO U OTROS FLUIDOS        C000000001220000000000000000000000100000000000000000000000100000F0100000004350200120240109000000
F0100000004350200002000022222222200041251003100000000000000202401090004509903868 TRIGLICERIDOS                              C000000001220000000000000000000000100000000000000000000000100000F0100000004350200120240109000000
F0100000004350200003000022222222200041251003100000000000000202401090004509903866 TRANSAMINASA GLUTAMICO-PIRUVICA [ALANINO AMC000000001220000000000000000000000100000000000000000000000100000F0100000004350200120240109000000
F0100000004350200004000022222222200041251003100000000000000202401090004509903867 TRANSAMINASA GLUTAMICO OXALACETICA [ASPARTAC000000001220000000000000000000000100000000000000000000000100000F0100000004350200120240109000000
F0100000004350200005000022222222200013022500000000000000000202401090004509SERVICIOS MES 01 DE 2024                          D000000004880000000000000000000000100000000000000000000000000000F0100000004350200120240109000000
F0100000004350300001000022222222200041355500000000000000000202401090004509EF48102 COPAGO Y CUOTAS MODERADORAS NIVEL 1       C000000000820000000000000000000000100000000000000000000000200000F0100000004350300120240109000000
F0100000004350300002000022222222200041355500000000000000000202401090004509EF48102 COPAGO Y CUOTAS MODERADORAS NIVEL 2       C000000001640000000000000000000000100000000000000000000000100000F0100000004350300120240109000000
F0100000004350300003000022222222200013022500000000000000000202401090004509SERVICIOS MES 01 DE 2024                          D000000002460000000000000000000000100000000000000000000000000000F0100000004350300120240109000000
F0100000004350400001000022222222200041355500000000000000000202401090004509EF48102 COPAGO Y CUOTAS MODERADORAS NIVEL 1       C000000002450000000000000000000000100000000000000000000000100000F0100000004350400120240109000000
F0100000004350400002000022222222200013022500000000000000000202401090004509SERVICIOS MES 01 DE 2024                          D000000002450000000000000000000000100000000000000000000000000000F0100000004350400120240109000000
F0100000004350500001000083002320200041051001020000000000000202401100009509890701 CONSULTA DE URGENCIAS POR MEDICINA GENERAL C000000001739500000000000000000000100000000000000000000000100000F0100000004350500120240110000000
F010000000435050000200008300232020004105010102000000000000020240110000950919986458-03 ACETAMINOFEN 500 mg TABLETA N/A       C000000000150000000000000000000000100000000000000000000003000000F0100000004350500120240110000000
F01000000043505000030000830023202000410501020200000000000002024011000095093000055000009 JERINGA DESECHABLE 5ml 21G x 1 1/2  C000000000207000000000000000000000100000000000000000000000300000F0100000004350500120240110000000
F010000000435050000400008300232020004105010102000000000000020240110000950919934768-18 DICLOfenaco 75 mg/3 ml*3 ml SOLUCION IC000000000088000000000000000000000100000000000000000000000200000F0100000004350500120240110000000
F010000000435050000500008300232020004105010102000000000000020240110000950920019105-06 DEXAMEtasona 8 mg/2ml SOLUCION INYECTAC000000000097000000000000000000000100000000000000000000000100000F0100000004350500120240110000000
F0100000004350500006000083002320200041050101020000000000000202401100009509200783-03 CETIRIZINA 10mg TABLETA N/A             C000000000084000000000000000000000100000000000000000000000600000F0100000004350500120240110000000
F0100000004350500007000083002320200013021000000000000000000202401100009509SERVICIOS MES 01 DE 2024                          D000000002365500000000000000000000100000000000000000000000000000F0100000004350500120240110000000
F0100000004350600001000083002320200041051001020000000000000202401100009509890701 CONSULTA DE URGENCIAS POR MEDICINA GENERAL C000000001739500000000000000000000100000000000000000000000100000F0100000004350600120240110000000
F01000000043506000020000830023202000410510040200000000000002024011000095095DSA01 DERECHOS DE SALA DE OBSERVACION EN URGENCIAC000000005132400000000000000000000100000000000000000000000100000F0100000004350600120240110000000
F0100000004350600003000083002320200041101044020000000000000202401100009509890308 CONSULTA DE CONTROL O DE SEGUIMIENTO POR PSC000000000772100000000000000000000100000000000000000000000100000F0100000004350600120240110000000
F010000000435060000400008300232020004105010102000000000000020240110000950919922566-06 OMEPrazol 40 mg POLVO PARA INYECCION NC000000000658000000000000000000000100000000000000000000000100000F0100000004350600120240110000000
F01000000043506000050000830023202000410501020200000000000002024011000095093000005000002 EQUIPO DE MACROGOTEO SIN AGUJA VENOCC000000000346000000000000000000000100000000000000000000000100000F0100000004350600120240110000000
F01000000043506000060000830023202000410501020200000000000002024011000095093000010000010 CATHETER INTRAVENOSO No.20G x 1-1/4 C000000000369000000000000000000000100000000000000000000000100000F0100000004350600120240110000000
F01000000043506000070000830023202000410501020200000000000002024011000095093000055000009 JERINGA DESECHABLE 5ml 21G x 1 1/2  C000000000207000000000000000000000100000000000000000000000300000F0100000004350600120240110000000
F010000000435060000800008300232020004105010102000000000000020240110000950919934768-18 DICLOfenaco 75 mg/3 ml*3 ml SOLUCION IC000000000044000000000000000000000100000000000000000000000100000F0100000004350600120240110000000
F010000000435060000900008300232020004105010102000000000000020240110000950929523-03 SODIO CLORURO - SUERO FISIOLOGICO 0.9 %/1C000000001308000000000000000000000100000000000000000000000300000F0100000004350600120240110000000
F010000000435060001000008300232020004105010102000000000000020240110000950919968955-01 ONDANSETRON 8 mg/4ml *4ml SOLO PARA QUC000000000394000000000000000000000100000000000000000000000100000F0100000004350600120240110000000
F010000000435060001100008300232020004105010102000000000000020240110000950929523-06 SODIO CLORURO-SUERO FISIOLOGICO (0.9%) 10C000000000781000000000000000000000100000000000000000000000100000F0100000004350600120240110000000
F0100000004350600012000083002320200041251002130000000000000202401100009509879111 TOMOGRAFIA COMPUTADA DE CRANEO SIMPLE      C000000013586300000000000000000000100000000000000000000000100000F0100000004350600120240110000000
F0100000004350600013000083002320200041251003100000000000000202401100009509903813 CLORO                                      C000000000401800000000000000000000100000000000000000000000100000F0100000004350600120240110000000
F0100000004350600014000083002320200041251003100000000000000202401100009509903841 GLUCOSA EN SUERO U OTRO FLUIDO DIFERENTE A C000000000433300000000000000000000100000000000000000000000100000F0100000004350600120240110000000
F0100000004350600015000083002320200041251003100000000000000202401100009509902210 HEMOGRAMA IV (HEMOGLOBINA HEMATOCRITO RECUEC000000001542100000000000000000000100000000000000000000000100000F0100000004350600120240110000000
F0100000004350600016000083002320200041251003100000000000000202401100009509903859 POTASIO EN SUERO U OTROS FLUIDOS           C000000001171800000000000000000000100000000000000000000000100000F0100000004350600120240110000000
F0100000004350600017000083002320200041251003100000000000000202401100009509903864 SODIO EN SUERO U OTROS FLUIDOS             C000000000834400000000000000000000100000000000000000000000100000F0100000004350600120240110000000
F0100000004350600018000083002320200041251003100000000000000202401100009509907106 UROANALISIS                                C000000001106700000000000000000000100000000000000000000000100000F0100000004350600120240110000000
F0100000004350600019000083002320200041251003110000000000000202401100009509905727 DROGAS DE ABUSO                            C000000002019500000000000000000000100000000000000000000000100000F0100000004350600120240110000000
F0100000004350600020000083002320200013021000000000000000000202401100009509SERVICIOS MES 01 DE 2024                          D000000032846900000000000000000000100000000000000000000000000000F0100000004350600120240110000000
F0100000004350700001000083002320200041051001020000000000000202401100009509890701 CONSULTA DE URGENCIAS POR MEDICINA GENERAL C000000001739500000000000000000000100000000000000000000000100000F0100000004350700120240110000000
F010000000435070000200008300232020004105010102000000000000020240110000950920011990-02 DICLOFENACO 25MG + TRAMADOL 25MG TABLEC000000007497000000000000000000000100000000000000000000002100000F0100000004350700120240110000000
F010000000435070000300008300232020004105010102000000000000020240110000950919924285-30 TRAMADOL CLORHIDRATO 50 mg/ml*1ml SOLUC000000000104000000000000000000000100000000000000000000000100000F0100000004350700120240110000000
F01000000043507000040000830023202000410501020200000000000002024011000095093000005000002 EQUIPO DE MACROGOTEO SIN AGUJA VENOCC000000000346000000000000000000000100000000000000000000000100000F0100000004350700120240110000000
F01000000043507000050000830023202000410501020200000000000002024011000095093000010000010 CATHETER INTRAVENOSO No.20G x 1-1/4 C000000000369000000000000000000000100000000000000000000000100000F0100000004350700120240110000000
F01000000043507000060000830023202000410501020200000000000002024011000095093000055000005 JERINGA DESECHABLE 10ml 21G x 1 1/2 C000000000162000000000000000000000100000000000000000000000200000F0100000004350700120240110000000
F010000000435070000700008300232020004105010102000000000000020240110000950919934768-18 DICLOfenaco 75 mg/3 ml*3 ml SOLUCION IC000000000044000000000000000000000100000000000000000000000100000F0100000004350700120240110000000
F010000000435070000800008300232020004105010102000000000000020240110000950919953202-07 PREGABALINA 75 mg CAPSULA N/A         C000000001457000000000000000000000100000000000000000000001000000F0100000004350700120240110000000
F010000000435070000900008300232020004105010102000000000000020240110000950929523-03 SODIO CLORURO - SUERO FISIOLOGICO 0.9 %/1C000000000872000000000000000000000100000000000000000000000200000F0100000004350700120240110000000
F0100000004350700010000083002320200013021000000000000000000202401100009509SERVICIOS MES 01 DE 2024                          D000000012590500000000000000000000100000000000000000000000000000F0100000004350700120240110000000
F0100000004350800001000083002320200041251002110000000000000202401100009509881332 ECOGRAFIA DE VIAS URINARIAS (RIÑONES VEJIGAC000000004226600000000000000000000100000000000000000000000100000F0100000004350800120240110000000
F0100000004350800002000083002320200041051001020000000000000202401100009509890701 CONSULTA DE URGENCIAS POR MEDICINA GENERAL C000000001739500000000000000000000100000000000000000000000100000F0100000004350800120240110000000
F010000000435080000300008300232020004105010102000000000000020240110000950919926478-03 N-BUTIL BROMURO DE HIOSCINA + DIPIRONAC000000000146000000000000000000000100000000000000000000000100000F0100000004350800120240110000000
F01000000043508000040000830023202000410501020200000000000002024011000095093000055000005 JERINGA DESECHABLE 10ml 21G x 1 1/2 C000000000162000000000000000000000100000000000000000000000200000F0100000004350800120240110000000
F010000000435080000500008300232020004105010102000000000000020240110000950929523-03 SODIO CLORURO - SUERO FISIOLOGICO 0.9 %/1C000000000872000000000000000000000100000000000000000000000200000F0100000004350800120240110000000
F01000000043508000060000830023202000410501020200000000000002024011000095093000020000028 SONDA NELATON No. 8                 C000000000150000000000000000000000100000000000000000000000100000F0100000004350800120240110000000
F01000000043508000070000830023202000410501020200000000000002024011000095093000010000009 CATHETER INTRAVENOSO No.18G x 1-1/4 C000000000369000000000000000000000100000000000000000000000100000F0100000004350800120240110000000
F01000000043508000080000830023202000410501020200000000000002024011000095093000005000002 EQUIPO DE MACROGOTEO SIN AGUJA VENOCC000000000346000000000000000000000100000000000000000000000100000F0100000004350800120240110000000
F010000000435080000900008300232020004105010102000000000000020240110000950919922566-06 OMEPrazol 40 mg POLVO PARA INYECCION NC000000000658000000000000000000000100000000000000000000000100000F0100000004350800120240110000000
F0100000004350800010000083002320200041251003100000000000000202401100009509902210 HEMOGRAMA IV (HEMOGLOBINA HEMATOCRITO RECUEC000000001542100000000000000000000100000000000000000000000100000F0100000004350800120240110000000
F0100000004350800011000083002320200041251003100000000000000202401100009509904508 GONADOTROPINA CORIONICA SUBUNIDAD BETA CUALC000000002094400000000000000000000100000000000000000000000100000F0100000004350800120240110000000
F0100000004350800012000083002320200041251003100000000000000202401100009509907106 UROANALISIS                                C000000001106700000000000000000000100000000000000000000000100000F0100000004350800120240110000000
F0100000004350800013000083002320200041251003100000000000000202401100009509903856 NITROGENO UREICO                           C000000000513100000000000000000000100000000000000000000000100000F0100000004350800120240110000000
F0100000004350800014000083002320200041251003100000000000000202401100009509903895 CREATININA EN SUERO U OTROS FLUIDOS        C000000000433300000000000000000000100000000000000000000000100000F0100000004350800120240110000000
F0100000004350800015000083002320200013021000000000000000000202401100009509SERVICIOS MES 01 DE 2024                          D000000014358700000000000000000000100000000000000000000000000000F0100000004350800120240110000000
F0100000004350900001000083002320200041051001020000000000000202401100009509890701 CONSULTA DE URGENCIAS POR MEDICINA GENERAL C000000001739500000000000000000000100000000000000000000000100000F0100000004350900120240110000000
F0100000004350900002000083002320200041251002100000000000000202401100009509871111 RADIOGRAFIA DE REJA COSTAL                 C000000002892400000000000000000000100000000000000000000000100000F0100000004350900120240110000000
F0100000004350900003000083002320200041251002100000000000000202401100009509871121 RADIOGRAFIA DE TORAX (P.A. O A.P. Y LATERALC000000002892400000000000000000000100000000000000000000000100000F0100000004350900120240110000000
F01000000043509000040000830023202000410501020200000000000002024011000095093000055000009 JERINGA DESECHABLE 5ml 21G x 1 1/2  C000000000069000000000000000000000100000000000000000000000100000F0100000004350900120240110000000
F010000000435090000500008300232020004105010102000000000000020240110000950919927831-04 NAPROXENO 250 mg TABLETA N/A          C000000000210000000000000000000000100000000000000000000001500000F0100000004350900120240110000000
F010000000435090000600008300232020004105010102000000000000020240110000950919934768-18 DICLOfenaco 75 mg/3 ml*3 ml SOLUCION IC000000000044000000000000000000000100000000000000000000000100000F0100000004350900120240110000000
F0100000004350900007000083002320200013021000000000000000000202401100009509SERVICIOS MES 01 DE 2024                          D000000007847300000000000000000000100000000000000000000000000000F0100000004350900120240110000000
F0100000004351000001000083002320200041251003100000000000000202401100009509902210 HEMOGRAMA IV (HEMOGLOBINA HEMATOCRITO RECUEC000000001542100000000000000000000100000000000000000000000100000F0100000004351000120240110000000
F01000000043510000020000830023202000410501020200000000000002024011000095093000055000005 JERINGA DESECHABLE 10ml 21G x 1 1/2 C000000000162000000000000000000000100000000000000000000000200000F0100000004351000120240110000000
F0100000004351000003000083002320200041051001020000000000000202401100009509890701 CONSULTA DE URGENCIAS POR MEDICINA GENERAL C000000001739500000000000000000000100000000000000000000000100000F0100000004351000120240110000000
F0100000004351000004000083002320200041251002110000000000000202401100009509881402 ECOGRAFIA PELVICA GINECOLOGICA TRANSABDOMINC000000001941100000000000000000000100000000000000000000000100000F0100000004351000120240110000000
F0100000004351000005000083002320200041251002110000000000000202401100009509881302 ECOGRAFIA DE ABDOMEN TOTAL (HIGADO PANCREASC000000007215600000000000000000000100000000000000000000000100000F0100000004351000120240110000000
F0100000004351000006000083002320200041050101020000000000000202401100009509225064-07 HIOSCINA N-BUTIL BROMURO 20mg/ml*1 ml SOC000000000127000000000000000000000100000000000000000000000100000F0100000004351000120240110000000
F010000000435100000700008300232020004105010102000000000000020240110000950919931879-04 METOCLOpramida 5 mg/ ml*2 ml (eQUIVALEC000000000048000000000000000000000100000000000000000000000100000F0100000004351000120240110000000
F0100000004351000008000083002320200041251003100000000000000202401100009509904508 GONADOTROPINA CORIONICA SUBUNIDAD BETA CUALC000000002094400000000000000000000100000000000000000000000100000F0100000004351000120240110000000
F0100000004351000009000083002320200013021000000000000000000202401100009509SERVICIOS MES 01 DE 2024                          D000000014869700000000000000000000100000000000000000000000000000F0100000004351000120240110000000
F0100000004351100001000083002320200041051001020000000000000202401100009509890701 CONSULTA DE URGENCIAS POR MEDICINA GENERAL C000000001739500000000000000000000100000000000000000000000100000F0100000004351100120240110000000
F0100000004351100002000083002320200041251002110000000000000202401100009509881201 ECOGRAFIA DE MAMA CON TRANSDUCTOR DE 7 MHZ C000000003936100000000000000000000100000000000000000000000100000F0100000004351100120240110000000
F010000000435110000300008300232020004105010102000000000000020240110000950919944399-04 IBUPROFENO 400 mg TABLETA N/A         C000000000140000000000000000000000100000000000000000000001000000F0100000004351100120240110000000
F0100000004351100004000083002320200041251003100000000000000202401100009509904508 GONADOTROPINA CORIONICA SUBUNIDAD BETA CUALC000000002094400000000000000000000100000000000000000000000100000F0100000004351100120240110000000
F0100000004351100005000083002320200041251003110000000000000202401100009509904108 PROLACTINA                                 C000000003179400000000000000000000100000000000000000000000100000F0100000004351100120240110000000
F0100000004351100006000083002320200013021000000000000000000202401100009509SERVICIOS MES 01 DE 2024                          D000000011089400000000000000000000100000000000000000000000000000F0100000004351100120240110000000
F0100000004351200001000083002320200041051001020000000000000202401100009509890701 CONSULTA DE URGENCIAS POR MEDICINA GENERAL C000000001739500000000000000000000100000000000000000000000100000F0100000004351200120240110000000
F0100000004351200002000083002320200041251002100000000000000202401100009509873210 RADIOGRAFIA DE MANO                        C000000002062200000000000000000000100000000000000000000000100000F0100000004351200120240110000000
F01000000043512000030000830023202000410501020200000000000002024011000095093000025000001 VENDAS DE ALGODON LAMINADO 3 X 5 (UNC000000000288000000000000000000000100000000000000000000000100000F0100000004351200120240110000000
F01000000043512000040000830023202000410501020200000000000002024011000095093000025000009 VENDA ELASTICA 3in x 5 YDAS         C000000000403000000000000000000000100000000000000000000000100000F0100000004351200120240110000000
F010000000435120000500008300232020004105010102000000000000020240110000950919927831-04 NAPROXENO 250 mg TABLETA N/A          C000000000168000000000000000000000100000000000000000000001200000F0100000004351200120240110000000
F0100000004351200006000083002320200013021000000000000000000202401100009509SERVICIOS MES 01 DE 2024                          D000000004660700000000000000000000100000000000000000000000000000F0100000004351200120240110000000
F0100000004351300001000022222222200041251003020000000000000202401100004509904922 TIROXINA TOTAL                             C000000001620000000000000000000000100000000000000000000000100000F0100000004351300120240110000000
F0100000004351300002000022222222200013022500000000000000000202401100004509SERVICIOS MES 01 DE 2024                          D000000001620000000000000000000000100000000000000000000000000000F0100000004351300120240110000000
F01000000043514000010000830023202000410501020200000000000002024011000095093000010000009 CATHETER INTRAVENOSO No.18G x 1-1/4 C000000000369000000000000000000000100000000000000000000000100000F0100000004351400120240110000000
F0100000004351400002000083002320200041051001020000000000000202401100009509890701 CONSULTA DE URGENCIAS POR MEDICINA GENERAL C000000001739500000000000000000000100000000000000000000000100000F0100000004351400120240110000000
F0100000004351400003000083002320200041050101020000000000000202401100009509218257-01 TRAMadol CLORH 10% *10 ml gotas SOLUCIONC000000000305000000000000000000000100000000000000000000000100000F0100000004351400120240110000000
F010000000435140000400008300232020004105010102000000000000020240110000950919924285-30 TRAMADOL CLORHIDRATO 50 mg/ml*1ml SOLUC000000000104000000000000000000000100000000000000000000000100000F0100000004351400120240110000000
F01000000043514000050000830023202000410501020200000000000002024011000095093000005000002 EQUIPO DE MACROGOTEO SIN AGUJA VENOCC000000000346000000000000000000000100000000000000000000000100000F0100000004351400120240110000000
F01000000043514000060000830023202000410501020200000000000002024011000095093000055000005 JERINGA DESECHABLE 10ml 21G x 1 1/2 C000000000243000000000000000000000100000000000000000000000300000F0100000004351400120240110000000
F010000000435140000700008300232020004105010102000000000000020240110000950919927831-04 NAPROXENO 250 mg TABLETA N/A          C000000000210000000000000000000000100000000000000000000001500000F0100000004351400120240110000000
F010000000435140000800008300232020004105010102000000000000020240110000950932611-01 LACTATO DE RINGER *500 ml SOLUCION INYECTC000000000409000000000000000000000100000000000000000000000100000F0100000004351400120240110000000
F010000000435140000900008300232020004105010102000000000000020240110000950919934768-18 DICLOfenaco 75 mg/3 ml*3 ml SOLUCION IC000000000044000000000000000000000100000000000000000000000100000F0100000004351400120240110000000
F010000000435140001000008300232020004105010102000000000000020240110000950929523-03 SODIO CLORURO - SUERO FISIOLOGICO 0.9 %/1C000000001308000000000000000000000100000000000000000000000300000F0100000004351400120240110000000
F010000000435140001100008300232020004105010102000000000000020240110000950919968955-01 ONDANSETRON 8 mg/4ml *4ml SOLO PARA QUC000000000394000000000000000000000100000000000000000000000100000F0100000004351400120240110000000
F0100000004351400012000083002320200041251003100000000000000202401100009509903895 CREATININA EN SUERO U OTROS FLUIDOS        C000000000433300000000000000000000100000000000000000000000100000F0100000004351400120240110000000
F0100000004351400013000083002320200041251003100000000000000202401100009509902210 HEMOGRAMA IV (HEMOGLOBINA HEMATOCRITO RECUEC000000001542100000000000000000000100000000000000000000000100000F0100000004351400120240110000000
F0100000004351400014000083002320200041251003100000000000000202401100009509907106 UROANALISIS                                C000000001106700000000000000000000100000000000000000000000100000F0100000004351400120240110000000
F0100000004351400015000083002320200041251002110000000000000202401100009509881332 ECOGRAFIA DE VIAS URINARIAS (RIÑONES VEJIGAC000000004226600000000000000000000100000000000000000000000100000F0100000004351400120240110000000
F0100000004351400016000083002320200013021000000000000000000202401100009509SERVICIOS MES 01 DE 2024                          D000000012780200000000000000000000100000000000000000000000000000F0100000004351400120240110000000
F01000000043515000010000830023202000411501020200000000000002024011000095093000010000024 LLAVE DE TRES VIAS DESECHABLE       C000000001036000000000000000000000100000000000000000000000200000F0100000004351500120240110000000
F01000000043515000020000830023202000411501020200000000000002024011000095093000005000024 FOTOSENSIBLE ESTANDAR INTRAFIX AIR FC000000003571000000000000000000000100000000000000000000000100000F0100000004351500120240110000000
F010000000435150000300008300232020004115010102000000000000020240110000950932611-02 LACTATO DE RINGER *1000 ml N/A SOLUCION IC000000001436000000000000000000000100000000000000000000000200000F0100000004351500120240110000000
F010000000435150000400008300232020004115010102000000000000020240110000950929523-03 SODIO CLORURO - SUERO FISIOLOGICO 0.9 %/1C000000029212000000000000000000000100000000000000000000006700000F0100000004351500120240110000000
F01000000043515000050000830023202000411501020200000000000002024011000095093000055000005 JERINGA DESECHABLE 10ml 21G x 1 1/2 C000000009882000000000000000000000100000000000000000000012200000F0100000004351500120240110000000
F010000000435150000600008300232020004115010102000000000000020240110000950919928054-02 CEFEPIMA 1g N/A POLVO PARA INYECCION  C000000008940000000000000000000000100000000000000000000000400000F0100000004351500120240110000000
F010000000435150000700008300232020004115010102000000000000020240110000950951063-03 TRIMETOPRIM 160mg +SULFAMETOXAZOL 800 mg C000000000028000000000000000000000100000000000000000000000100000F0100000004351500120240110000000
F010000000435150000800008300232020004115010102000000000000020240110000950919965499-03 LOSARTAN 50mg N/A TABLETA             C000000000518000000000000000000000100000000000000000000003700000F0100000004351500120240110000000
F010000000435150000900008300232020004115010102000000000000020240110000950919986458-03 ACETAMINOFEN 500 mg N/A TABLETA       C000000000260000000000000000000000100000000000000000000005200000F0100000004351500120240110000000
F010000000435150001000008300232020004115010102000000000000020240110000950920043928-01 AMIODARONA 200 mg N/A TABLETA         C000000006260000000000000000000000100000000000000000000002000000F0100000004351500120240110000000
F010000000435150001100008300232020004115010102000000000000020240110000950939002-01 LIDOCAINA (2%) 2.14 g/100 ml*30 ml N/A JAC000000024462000000000000000000000100000000000000000000001800000F0100000004351500120240110000000
F010000000435150001200008300232020004115010102000000000000020240110000950919947837-13 ENOXAPARINA SODICA 40MG/0.4ML CLENOX SC000000018902000000000000000000000100000000000000000000001300000F0100000004351500120240110000000
F0100000004351500013000083002320200041150101020000000000000202401100009509N/A ALIMENTO(ENSURE HN PLUS) PARA PROPOSITOS MEDICC000000027984000000000000000000000100000000000000000000002200000F0100000004351500120240110000000
F010000000435150001400008300232020004115010102000000000000020240110000950936743-03 SUCRALFATO 1 g N/A TABLETA               C000000007245000000000000000000000100000000000000000000006300000F0100000004351500120240110000000
F010000000435150001500008300232020004115010102000000000000020240110000950941072-02 OMEPRAZOL 20 MG LEGRAND CAPSULA          C000000000273600000000000000000000100000000000000000000001900000F0100000004351500120240110000000
F010000000435150001600008300232020004115010102000000000000020240110000950919928629-02 AMLODIPINO 10mg N/A TABLETA           C000000000266000000000000000000000100000000000000000000001900000F0100000004351500120240110000000
F01000000043515000170000830023202000411501020200000000000002024011000095093000020000031 SONDA NELATON No. 14 (UND)          C000000000300000000000000000000000100000000000000000000000200000F0100000004351500120240110000000
F010000000435150001800008300232020004115010102000000000000020240110000950919997076-02 NISTATINA 100.000 UI/ml*60 ml N/A SUSPC000000009392000000000000000000000100000000000000000000001600000F0100000004351500120240110000000
F010000000435150001900008300232020004115010102000000000000020240110000950920029185-01 LINEZOLID 2mg/ml*300 ml N/A SOLUCION IC000000012539500000000000000000000100000000000000000000000100000F0100000004351500120240110000000
F01000000043515000200000830023202000411501020200000000000002024011000095093000005000002 EQUIPO DE MACROGOTEO SIN AGUJA VENOCC000000001384000000000000000000000100000000000000000000000400000F0100000004351500120240110000000
F01000000043515000210000830023202000411501020200000000000002024011000095093000105000005 HUMIDIFICADOR DE OXIGENO            C000000002258000000000000000000000100000000000000000000000200000F0100000004351500120240110000000
F01000000043515000220000830023202000411501020200000000000002024011000095093000085000007 CANULA NASAL DE OXIGENO ADULTO      C000000001106000000000000000000000100000000000000000000000200000F0100000004351500120240110000000
F0100000004351500023000083002320200041301001020000000000000202401100009509931001 TERAPIA FISICA INTEGRAL                    C000000042506100000000000000000000100000000000000000000003900000F0100000004351500120240110000000
F0100000004351500024000083002320200041301002020000000000000202401100009509939403 TERAPIA RESPIRATORIA INTEGRAL              C000000044171400000000000000000000100000000000000000000003900000F0100000004351500120240110000000
F0100000004351500025000083002320200041101012020000000000000202401100009509890443 INTERCONSULTA POR ESPECIALISTA EN DOLOR Y CC000000011690000000000000000000000100000000000000000000000500000F0100000004351500120240110000000
F0100000004351500026000083002320200041151001080000000000000202401100009509890602 CUIDADO (MANEJO) INTRAHOSPITALARIO POR MEDIC000000031699500000000000000000000100000000000000000000001500000F0100000004351500120240110000000
F0100000004351500027000083002320200041150101020000000000000202401100009509218004-08 AMPICILINA+SULBACTAM 1.5 g N/A POLVO PARC000000015532000000000000000000000100000000000000000000004400000F0100000004351500120240110000000
F01000000043515000280000830023202000411501020200000000000002024011000095093000005000008 EXTENSION DE ANESTESIA ADULTO       C000000008460000000000000000000000100000000000000000000001500000F0100000004351500120240110000000
F01000000043515000290000830023202000411501020200000000000002024011000095093000005001017 APOSITO PERIFERICO ADULTO PREMIUM 6CC000000010098000000000000000000000100000000000000000000002700000F0100000004351500120240110000000
F01000000043515000300000830023202000411501020200000000000002024011000095093000010000010 CATHETER INTRAVENOSO No.20G x 1-1/4 C000000004059000000000000000000000100000000000000000000001100000F0100000004351500120240110000000
F010000000435150003100008300232020004115010102000000000000020240110000950920041806-02 AGUA Esteril 10ML **SOLICITAR*** N/A SC000000003000000000000000000000000100000000000000000000005000000F0100000004351500120240110000000
F01000000043515000320000830023202000411501020200000000000002024011000095093000105000029 INCENTIVO RESPIRATORIO CON COLUMNA DC000000002477000000000000000000000100000000000000000000000100000F0100000004351500120240110000000
F01000000043515000330000830023202000411501020200000000000002024011000095093000020000008 SONDA FOLEY DOS VIAS No. 18 (UND)   C000000001332000000000000000000000100000000000000000000000300000F0100000004351500120240110000000
F01000000043515000340000830023202000411501020200000000000002024011000095093000110000010 BOLSA DRENAJE URINARIO x 2000ML     C000000003502000000000000000000000100000000000000000000000200000F0100000004351500120240110000000
F010000000435150003500008300232020004115010102000000000000020240110000950917135-01 TRAZODONA CLORHIDRATO 50 mg N/A COMPRIMIDC000000001044000000000000000000000100000000000000000000001800000F0100000004351500120240110000000
F0100000004351500036000083002320200041251003100000000000000202401100009509907106 UROANALISIS                                C000000002213400000000000000000000100000000000000000000000200000F0100000004351500120240110000000
F0100000004351500037000083002320200041251003100000000000000202401100009509901107 COLORACION GRAM Y LECTURA PARA CUALQUIER MUC000000000834400000000000000000000100000000000000000000000200000F0100000004351500120240110000000
F0100000004351500038000083002320200041251003100000000000000202401100009509901236 UROCULTIVO (ANTIBIOGRAMA CONCENTRACION MINIC000000008093400000000000000000000100000000000000000000000200000F0100000004351500120240110000000
F010000000435150003900008300232020004115010102000000000000020240110000950929523-04 SODIO CLORURO - SUERO FISIOLOGICO 0.9 %/2C000000003280000000000000000000000100000000000000000000000800000F0100000004351500120240110000000
F010000000435150004000008300232020004115010102000000000000020240110000950946040-01 FUROsemida 20 mg/2 ml*2 ml N/A SOLUCION IC000000002888000000000000000000000100000000000000000000003800000F0100000004351500120240110000000
F01000000043515000410000830023202000411501020200000000000002024011000095093000005000791 APOSITO DUODERM HIDROCOLOIDE CON CGFC000000111176000000000000000000000100000000000000000000000400000F0100000004351500120240110000000
F010000000435150004200008300232020004115100110000000000000020240110000950910A001 INTERNACIÓN COMPLEJIDAD ALTA HABITACION UNIC000000244009500000000000000000000100000000000000000000001700000F0100000004351500120240110000000
F010000000435150004300008300232020004115010102000000000000020240110000950919961043-04 TAMSULOSINA 0.4 mg N/A CAPSULA        C000000003436000000000000000000000100000000000000000000002000000F0100000004351500120240110000000
F01000000043515000440000830023202000411501010200000000000002024011000095090000 PANAL TENA TALLA N/A UNIDAD                  C000000002061000000000000000000000100000000000000000000000500000F0100000004351500120240110000000
F01000000043515000450000830023202000411501020200000000000002024011000095093000005001438 APOSITO AQUACEL FOAM LITE 10CMX10CM C000000006785300000000000000000000100000000000000000000000100000F0100000004351500120240110000000
F01000000043515000460000830023202000411501020200000000000002024011000095093000005000930 NIPLE CONECTOR UNIVERSAL            C000000000207000000000000000000000100000000000000000000000100000F0100000004351500120240110000000
F01000000043515000470000830023202000411501020200000000000002024011000095093000105000011 MICRONEBULIZADOR P/ADULTO           C000000000979000000000000000000000100000000000000000000000100000F0100000004351500120240110000000
F01000000043515000480000830023202000411501020200000000000002024011000095093000055000008 JERINGA DESECHABLE 3ml - 21G x 1 1/2C000000000069000000000000000000000100000000000000000000000100000F0100000004351500120240110000000
F0100000004351500049000083002320200041251003100000000000000202401100009509903803 ALBUMINA EN SUERO U OTROS FLUIDOS          C000000000834400000000000000000000100000000000000000000000200000F0100000004351500120240110000000
F0100000004351500050000083002320200041251003100000000000000202401100009509903863 PROTEINAS TOTALES EN SUERO Y OTROS FLUIDOS C000000000866600000000000000000000100000000000000000000000200000F0100000004351500120240110000000
F0100000004351500051000083002320200041101044020000000000000202401100009509890408 INTERCONSULTA POR PSICOLOGIA               C000000016366000000000000000000000100000000000000000000000700000F0100000004351500120240110000000
F01000000043515000520000830023202000411501020200000000000002024011000095093000005000069 APOSITO DE HIDROFIBRA + AG 10X10 cm C000000008396000000000000000000000100000000000000000000000100000F0100000004351500120240110000000
F0100000004351500053000083002320200041150101020000000000000202401100009509020022622-03 NUTRICION PARENTERAL TOTAL PERIFERICAC000000032255000000000000000000000100000000000000000000000100000F0100000004351500120240110000000
F010000000435150005400008300232020004115010102000000000000020240110000950919940724-02 ALENDRONATO SODICO 70mg evento uso excC000000000246000000000000000000000100000000000000000000000200000F0100000004351500120240110000000
F01000000043515000550000830023202000411501020200000000000002024011000095093000005000007 EQUIPO B. ESTANDAR INTRAFIX COMPAC AC000000047320000000000000000000000100000000000000000000001300000F0100000004351500120240110000000
F0100000004351500056000083002320200041150101020000000000000202401100009509000040377-03 CLORHEXIDINA DIGLUCONATO X 2 G x 180mC000000003202000000000000000000000100000000000000000000000100000F0100000004351500120240110000000
F01000000043515000570000830023202000411501020200000000000002024011000095093000010000032 ADAPTADOR C/VALVULA "ULTRASITE" REF/C000000006216000000000000000000000100000000000000000000001200000F0100000004351500120240110000000
F0100000004351500058000083002320200041101045020000000000000202401100009509890402 INTERCONSULTA POR OTRAS ESPECIALIDADES MEDIC000000002338000000000000000000000100000000000000000000000100000F0100000004351500120240110000000
F010000000435150005900008300232020004115100110000000000000020240110000950910A002 INTERNACIÓN COMPLEJIDAD ALTA HABITACION BIPC000000036859200000000000000000000100000000000000000000000300000F0100000004351500120240110000000
F01000000043515000600000830023202000411501020200000000000002024011000095093000105000008 MASCARILLA DE OXIGENO ADULTO        C000000000674000000000000000000000100000000000000000000000100000F0100000004351500120240110000000
F0100000004351500061000083002320200041150101020000000000000202401100009509208131-06 CEFAlotina 1 g N/A POLVO PARA INYECCION C000000015334000000000000000000000100000000000000000000003400000F0100000004351500120240110000000
F01000000043515000620000830023202000411501020200000000000002024011000095093000055000021 JERINGA P/GASES ARTERIALES .        C000000001082000000000000000000000100000000000000000000000200000F0100000004351500120240110000000
F010000000435150006300008300232020004115010102000000000000020240110000950920003828-01 ENEMA SOLUCION SALINA 2.5% * 1000 ML RC000000003306000000000000000000000100000000000000000000000100000F0100000004351500120240110000000
F010000000435150006400008300232020004115010102000000000000020240110000950919922562-06 DIPIRONA 1g/2ml*2 ml no uso pediatricoC000000000090000000000000000000000100000000000000000000000100000F0100000004351500120240110000000
F0100000004351500065000083002320200041251003110000000000000202401100009509906841 PROCALCITONINA SEMIAUTOMATIZADO O AUTOMATIZC000000041250000000000000000000000100000000000000000000000300000F0100000004351500120240110000000
F0100000004351500066000083002320200041251003100000000000000202401100009509901221 HEMOCULTIVO AEROBIO AUTOMATIZADO CADA MUESTC000000008512000000000000000000000100000000000000000000000200000F0100000004351500120240110000000
F0100000004351500067000083002320200041251003110000000000000202401100009509903839 GASES ARTERIALES (EN REPOSO O EN EJERCICIO)C000000005329800000000000000000000100000000000000000000000300000F0100000004351500120240110000000
F0100000004351500068000083002320200041101033020000000000000202401100009509890306 CONSULTA DE CONTROL O DE SEGUIMIENTO POR NUC000000000767200000000000000000000100000000000000000000000100000F0100000004351500120240110000000
F0100000004351500069000083002320200041101048020000000000000202401100009509890309 CONSULTA DE CONTROL O DE SEGUIMIENTO POR TRC000000000781200000000000000000000100000000000000000000000100000F0100000004351500120240110000000
F0100000004351500070000083002320200041251003100000000000000202401100009509901222 HEMOCULTIVO AEROBIO MANUAL CADA MUESTRA    C000000022751400000000000000000000100000000000000000000000600000F0100000004351500120240110000000
F0100000004351500071000083002320200041251003100000000000000202401100009509903859 POTASIO EN SUERO U OTROS FLUIDOS           C000000008202600000000000000000000100000000000000000000000700000F0100000004351500120240110000000
F0100000004351500072000083002320200041053503010000000000000202401100009509601T02 TRASLADO ASISTENCIAL BÁSICO TERRESTRE SECUNC000000063000000000000000000000000100000000000000000000001400000F0100000004351500120240110000000
F0100000004351500073000083002320200041251003100000000000000202401100009509907004 COPROSCOPICO                               C000000001169700000000000000000000100000000000000000000000100000F0100000004351500120240110000000
F010000000435150007400008300232020004115010102000000000000020240110000950919975598-03 FLUCONAZOL 200 mg N/A CAPSULA         C000000000390000000000000000000000100000000000000000000001000000F0100000004351500120240110000000
F01000000043515000750000830023202000411501020200000000000002024011000095093000010000009 CATHETER INTRAVENOSO No.18G x 1-1/4 C000000000369000000000000000000000100000000000000000000000100000F0100000004351500120240110000000
F0100000004351500076000083002320200041251002100000000000000202401100009509872002 RADIOGRAFIA DE ABDOMEN SIMPLE              C000000003411800000000000000000000100000000000000000000000100000F0100000004351500120240110000000
F0100000004351500077000083002320200041251003100000000000000202401100009509903813 CLORO                                      C000000002812600000000000000000000100000000000000000000000700000F0100000004351500120240110000000
F0100000004351500078000083002320200041251003100000000000000202401100009509903864 SODIO EN SUERO U OTROS FLUIDOS             C000000005840800000000000000000000100000000000000000000000700000F0100000004351500120240110000000
F010000000435150007900008300232020004115010102000000000000020240110000950919947668-01 ALBUMINA HUMANA 20%* 50 ml N/A SOLUCIOC000000061101000000000000000000000100000000000000000000000300000F0100000004351500120240110000000
F010000000435150008000008300232020004115010102000000000000020240110000950920048683-01 PARACETAMOL (ACETAMINOFEN) 1G/100ML N/C000000003479000000000000000000000100000000000000000000000100000F0100000004351500120240110000000
F010000000435150008100008300232020004115010102000000000000020240110000950919944399-04 IBUPROFENO 400 mg N/A TABLETA         C000000000028000000000000000000000100000000000000000000000200000F0100000004351500120240110000000
F01000000043515000820000830023202000411501020200000000000002024011000095093000010000011 CATHETER INTRAVENOSO No.22G x 1     C000000001845000000000000000000000100000000000000000000000500000F0100000004351500120240110000000
F010000000435150008300008300232020004115010102000000000000020240110000950919967651-02 BUPRENORFINA 35 UG/H TRANSTEC PARCHE TC000000003074000000000000000000000100000000000000000000000100000F0100000004351500120240110000000
F01000000043515000840000830023202000411501020200000000000002024011000095093000010000044 CATHETER INTRAVENOSO No.14G x 1-1/4 C000000000738000000000000000000000100000000000000000000000200000F0100000004351500120240110000000
F01000000043515000850000830023202000411501020200000000000002024011000095093000005000766 CATHETER INTRAVENOSO No.24GX3/4 REF/C000000000369000000000000000000000100000000000000000000000100000F0100000004351500120240110000000
F010000000435150008600008300232020004115010102000000000000020240110000950952038-03 LIDOcaina SIMPLE 2% *10 ml N/A SOLUCION IC000000000300000000000000000000000100000000000000000000000200000F0100000004351500120240110000000
F010000000435150008700008300232020004115010102000000000000020240110000950919950453-01 ENOXAPARINA SODICA 60MG/0.6ML CLENOX SC000000015680000000000000000000000100000000000000000000000700000F0100000004351500120240110000000
F010000000435150008800008300232020004115010102000000000000020240110000950954889-01 BROMURO IPRATROPIO 0.25 mg + FENOTEROL BRC000000007048000000000000000000000100000000000000000000000100000F0100000004351500120240110000000
F010000000435150008900008300232020004115010102000000000000020240110000950920004032-04 SODIO BICARbonato 10 mEq/10 ml*10 ml NC000000002832000000000000000000000100000000000000000000001600000F0100000004351500120240110000000
F010000000435150009000008300232020004115010102000000000000020240110000950929523-05 SODIO CLORURO - SUERO FISIOLOGICO 0.9 %/5C000000000862000000000000000000000100000000000000000000000200000F0100000004351500120240110000000
F01000000043515000910000830023202000411501020200000000000002024011000095093000001000011 AGUJA DESECHABLE No 18G x 1 1/2     C000000000046000000000000000000000100000000000000000000000100000F0100000004351500120240110000000
F010000000435150009200008300232020004115010102000000000000020240110000950919956005-01 FLUCONAZOL 200 mg/100 ml*100 ml N/A SOC000000003902000000000000000000000100000000000000000000000200000F0100000004351500120240110000000
F01000000043515000930000830023202000411501020200000000000002024011000095093000055000004 JERINGA DESECHABLE 50 ML            C000000000150000000000000000000000100000000000000000000000100000F0100000004351500120240110000000
F010000000435150009400008300232020004115010102000000000000020240110000950920015631-03 ESPIRONOLACTONA 25 mg N/A TABLETA     C000000000168000000000000000000000100000000000000000000000600000F0100000004351500120240110000000
F0100000004351500095000083002320200041251003100000000000000202401100009509902045 TIEMPO DE PROTROMBINA [TP]                 C000000001052100000000000000000000100000000000000000000000100000F0100000004351500120240110000000
F0100000004351500096000083002320200041251003100000000000000202401100009509902049 TIEMPO DE TROMBOPLASTINA PARCIAL [TTP]     C000000001313900000000000000000000100000000000000000000000100000F0100000004351500120240110000000
F0100000004351500097000083002320200041251003100000000000000202401100009509902210 HEMOGRAMA IV (HEMOGLOBINA HEMATOCRITO RECUEC000000009252600000000000000000000100000000000000000000000600000F0100000004351500120240110000000
F0100000004351500098000083002320200041251002110000000000000202401100009509882316 ECOGRAFIA DOPPLER DE VASOS VENOSOS DE MIEMBC000000045320000000000000000000000100000000000000000000000100000F0100000004351500120240110000000
F0100000004351500099000083002320200041251003100000000000000202401100009509903852 LIQUIDO PLEURAL (EXAMEN FISICO Y CITOQUIMICC000000005761000000000000000000000100000000000000000000000200000F0100000004351500120240110000000
F0100000004351500100000083002320200041251003100000000000000202401100009509901209 CULTIVO DE LIQUIDOS CORPORALES (BILIS L.C.RC000000003483200000000000000000000100000000000000000000000200000F0100000004351500120240110000000
F0100000004351500101000083002320200041251003100000000000000202401100009509903828 DESHIDROGENASA LACTICA                     C000000000805000000000000000000000100000000000000000000000100000F0100000004351500120240110000000
F0100000004351500102000083002320200041251003100000000000000202401100009509903895 CREATININA EN SUERO U OTROS FLUIDOS        C000000001299900000000000000000000100000000000000000000000300000F0100000004351500120240110000000
F0100000004351500103000083002320200041251003100000000000000202401100009509903856 NITROGENO UREICO                           C000000001539300000000000000000000100000000000000000000000300000F0100000004351500120240110000000
F0100000004351500104000083002320200041251003100000000000000202401100009509901217 CULTIVO PARA MICROORGANISMOS EN CUALQUIER MC000000001976100000000000000000000100000000000000000000000100000F0100000004351500120240110000000
F0100000004351500105000083002320200041251002130000000000000202401100009509879301 TOMOGRAFIA COMPUTADA DE TORAX              C000000028277200000000000000000000100000000000000000000000200000F0100000004351500120240110000000
F0100000004351500106000083002320200041251002110000000000000202401100009509881701 ECOGRAFIA COMO GUIA PARA PROCEDIMIENTOS    C000000004949000000000000000000000100000000000000000000000100000F0100000004351500120240110000000
F010000000435150010700008300232020004115010102000000000000020240110000950949658-01 OXIGENO medicinal x m3 UNIDAD N/A        C000000085680000000000000000000000100000000000000000004284000000F0100000004351500120240110000000
F0100000004351500108000083002320200041101033020000000000000202401100009509890406 INTERCONSULTA POR NUTRICION Y DIETETICA    C000000021042000000000000000000000100000000000000000000000900000F0100000004351500120240110000000
F0100000004351500109000083002320200041150101020000000000000202401100009509INS094  PAQUETE NUTRICION PARENTERAL - PACIENTE ADC000001041900000000000000000000000100000000000000000000001000000F0100000004351500120240110000000
F01000000043515001100000830023202000411501020200000000000002024011000095093000080000018 APOSITO DE HIDROFIBRA + AG 10X10 cm C000000042247200000000000000000000100000000000000000000000400000F0100000004351500120240110000000
F0100000004351500111000083002320200041251002020000000000000202401100009509345002 TORACENTESIS DE DRENAJE O DESCOMPRESIVA    C000000009430000000000000000000000100000000000000000000000100000F0100000004351500120240110000000
F0100000004351500112000083002320200041251002110000000000000202401100009509881211 ECOGRAFIA DE TORAX (PERICARDIO O PLEURA)   C000000011320000000000000000000000100000000000000000000000100000F0100000004351500120240110000000
F010000000435150011300008300232020004115010102000000000000020240110000950919908236-07 AMIKACINA 500 mg/2 ml*2 ml N/A SOLUCIOC000000000358000000000000000000000100000000000000000000000200000F0100000004351500120240110000000
F01000000043515001140000830023202000411501020200000000000002024011000095093000005001439 APOSITO AQUASEL FOAM LITE 15CMX15CM C000000005582200000000000000000000100000000000000000000000100000F0100000004351500120240110000000
F010000000435150011500008300232020004115010102000000000000020240110000950919954690-06 CIPROFLOXACINA 100 mg/10 ml*10 ml N/A C000000006544000000000000000000000100000000000000000000001600000F0100000004351500120240110000000
F010000000435150011600008300232020004115010102000000000000020240110000950919961420-03 GLUCONATO DE POTASIO 31.2% *180ml ION-C000000001414000000000000000000000100000000000000000000000100000F0100000004351500120240110000000
F0100000004351500117000083002320200041251003100000000000000202401100009509901002 ANTIBIOGRAMA CONCENTRACION MINIMA INHIBITORC000000002297400000000000000000000100000000000000000000000100000F0100000004351500120240110000000
F0100000004351500118000083002320200041251002100000000000000202401100009509871121 RADIOGRAFIA DE TORAX (P.A. O A.P. Y LATERALC000000008677200000000000000000000100000000000000000000000300000F0100000004351500120240110000000
F010000000435150011900008300232020004115010102000000000000020240110000950920018968-3 IOPAMIDOL 612.4MG/ML * 200ML SOLUCION PC000000029700000000000000000000000100000000000000000000000100000F0100000004351500120240110000000
F0100000004351500120000083002320200041251002150000000000000202401100009509922443 TELETERAPIA CON ACELERADOR LINEAL (PLANEACIC000001095766100000000000000000000100000000000000000000000100000F0100000004351500120240110000000
F01000000043515001210000830023202000411501010200000000000002024011000095090 IOPAMIDOL 300MG/100ML SUSPENSION INYECTABLE IOPAC000000059400000000000000000000000100000000000000000000000200000F0100000004351500120240110000000
F0100000004351500122000083002320200013021000000000000000000202401100009509SERVICIOS MES 01 DE 2024                          D000003700840800000000000000000000100000000000000000000000000000F0100000004351500120240110000000
F0100000004351600001000022222222200041251003100000000000000202401100004509902210 HEMOGRAMA IV (HEMOGLOBINA HEMATOCRITO RECUEC000000001220000000000000000000000100000000000000000000000100000F0100000004351600120240110000000
F0100000004351600002000022222222200041251003100000000000000202401100004509903841 GLUCOSA EN SUERO U OTRO FLUIDO DIFERENTE A C000000001220000000000000000000000100000000000000000000000100000F0100000004351600120240110000000
F0100000004351600003000022222222200041251003100000000000000202401100004509903815 COLESTEROL DE ALTA DENSIDAD                C000000001220000000000000000000000100000000000000000000000100000F0100000004351600120240110000000
F0100000004351600004000022222222200041251003100000000000000202401100004509903818 COLESTEROL TOTAL                           C000000001220000000000000000000000100000000000000000000000100000F0100000004351600120240110000000
F0100000004351600005000022222222200041251003100000000000000202401100004509903868 TRIGLICERIDOS                              C000000001220000000000000000000000100000000000000000000000100000F0100000004351600120240110000000
F0100000004351600006000022222222200041251003110000000000000202401100004509904902 HORMONA ESTIMULANTE DEL TIROIDES           C000000001280000000000000000000000100000000000000000000000100000F0100000004351600120240110000000
F0100000004351600007000022222222200013022500000000000000000202401100004509SERVICIOS MES 01 DE 2024                          D000000007380000000000000000000000100000000000000000000000000000F0100000004351600120240110000000
F0100000004351700001000022222222200041251003100000000000000202401100004509902210 HEMOGRAMA IV (HEMOGLOBINA HEMATOCRITO RECUEC000000001220000000000000000000000100000000000000000000000100000F0100000004351700120240110000000
F0100000004351700002000022222222200041251003100000000000000202401100004509903841 GLUCOSA EN SUERO U OTRO FLUIDO DIFERENTE A C000000001220000000000000000000000100000000000000000000000100000F0100000004351700120240110000000
F0100000004351700003000022222222200041251003110000000000000202401100004509904902 HORMONA ESTIMULANTE DEL TIROIDES           C000000001280000000000000000000000100000000000000000000000100000F0100000004351700120240110000000
F0100000004351700004000022222222200041251003100000000000000202401100004509903815 COLESTEROL DE ALTA DENSIDAD                C000000001220000000000000000000000100000000000000000000000100000F0100000004351700120240110000000
F0100000004351700005000022222222200041251003100000000000000202401100004509903818 COLESTEROL TOTAL                           C000000001220000000000000000000000100000000000000000000000100000F0100000004351700120240110000000
F0100000004351700006000022222222200041251003100000000000000202401100004509903868 TRIGLICERIDOS                              C000000001220000000000000000000000100000000000000000000000100000F0100000004351700120240110000000
F0100000004351700007000022222222200013022500000000000000000202401100004509SERVICIOS MES 01 DE 2024                          D000000007380000000000000000000000100000000000000000000000000000F0100000004351700120240110000000
F0100000004351800001000022222222200041251003110000000000000202401100004509904902 HORMONA ESTIMULANTE DEL TIROIDES           C000000001280000000000000000000000100000000000000000000000100000F0100000004351800120240110000000
F0100000004351800002000022222222200013022500000000000000000202401100004509SERVICIOS MES 01 DE 2024                          D000000001280000000000000000000000100000000000000000000000000000F0100000004351800120240110000000
F0100000004351900001000022222222200041201022020000000000000202401100004509289101 BIOPSIA POR ASPIRACION CON AGUJA FINA DE AMC000000031900000000000000000000000100000000000000000000000100000F0100000004351900120240110000000
F0100000004351900002000022222222200013022500000000000000000202401100004509SERVICIOS MES 01 DE 2024                          D000000025520000000000000000000000100000000000000000000000000000F0100000004351900120240110000000
